:020000040800F2
:1040000000500020D1A800080167000805670008DB
:10401000096700080D67000811670008000000002C
:1040200000000000000000000000000061700008B7
:104030001567000800000000F1700008196700080B
:1040400019A9000819A9000819A9000819A9000848
:1040500019A9000819A9000819A9000819A9000838
:1040600019A900085967000819A900081D67000868
:1040700019A9000819A9000819A9000819A9000818
:1040800019A9000819A900082967000819A900083A
:1040900019A9000819A9000819A9000861670008F2
:1040A00019A900083567000819A9000819A900080E
:1040B0004D6700084167000819A9000819A9000800
:1040C00019A9000819A9000819A9000819A90008C8
:1040D00019A9000819A9000819A9000819A90008B8
:1040E00019A9000819A9000819A900080000000072
:1040F00000000000000000000000000000000000C0
:0C41000000000000000000005FF8E0F18B
:10411000044B05481B1A062B02D9044B03B1184760
:10412000704700BF3306002030060020000000006A
:1041300005490648091A891001EBD171491002D0CE
:10414000034B03B1184770473006002030060020AB
:104150000000000010B5064C237843B9FFF7D8FFE4
:10416000044B13B10448AFF300800123237010BD4A
:1041700030060020000000005CAB000808B5084BCA
:104180001BB108480849AFF300800848036813B919
:10419000BDE80840CCE7064B002BF9D09847F7E77D
:1041A000000000005CAB0008340600203006002050
:1041B000000000000648074A4379013382FB0321CF
:1041C000DA17C2EB610202EB82029B1A437170475D
:1041D0007407002067666666044A53880A339BB2F8
:1041E000B3F5967F88BF3223538070477407002051
:1041F000044A13790133DBB20F2B88BF01231371FB
:10420000704700BF74070020044AD3790133DBB242
:104210003C2B88BF0023D371704700BF7407002078
:10422000034A537AB3FA83F35B095372704700BFB2
:104230007407002010B40B490B4A8B791846C3F35E
:104240008303013303F00F0382FB034292089400BF
:104250002244A3EB420363F3850088715DF8044BAD
:10426000704700BF7407002067666666054A137AC8
:10427000194683F00803C3F3C00363F3C30111724B
:10428000704700BF74070020054A137A194683F06F
:104290000403C3F3800363F382011172704700BF0C
:1042A0007407002010B40949094A8B791846013374
:1042B00003F0030382FB0342540022449B1A63F37E
:1042C000010088715DF8044B704700BF740700203F
:1042D00056555555054A137A194603F0010383F0E4
:1042E000010363F300011172704700BF74070020DF
:1042F0000A4A9389517A0A339BB2938139B140F2C9
:1043000052318B4208D94FF4F07393817047B3F563
:10431000E17F84BFFA239381704700BF74070020B8
:10432000054A93791946C3F38113013303F001035E
:1043300063F387119171704774070020054A137A5F
:10434000194683F00203C3F3400363F34101117282
:10435000704700BF740700201D4B70B51B780446E2
:10436000022B0D461B4818D0002100F085FD0021CE
:104370000A46184800F070FD174B164853F83410E1
:1043800000F042FD1348002100F076FD29B21148EB
:104390000022BDE8704000F05FBD012100F06CFD1F
:1043A0000D4E00210A460B4800F056FD56F8341019
:1043B000084800F029FD06EBC4040648002101224C
:1043C00000F04AFD6168034800F01EFDDAE700BF17
:1043D000EDD900085C060020140100200D20072103
:1043E000BAE700BF0E200521B6E700BF0C2005216B
:1043F000B2E700BF2DE9F041074606F025FB044671
:1044000003F0ACF900210646224800F035FD0021FA
:104410000A462048073400F019FD1F4DE4B206E0BB
:10442000CB0734D400F06AFC322002F0C7FD03F061
:1044300095F98046174800F0A7FDC6EB0801A5FBDB
:104440000131C908B1FBF4F304FB131109B2C1F146
:10445000070101EB41018900002209B20D4800F07B
:10446000F5FC39460B4800F0CFFC00F06FFF013837
:10447000C3B201220F2B074802FA03F1D2D848F247
:104480008A030B40002BCBD00020BDE8F081104602
:10449000BDE8F0815C0600208988888808B509207D
:1044A0000521FFF759FF044B044899890322BDE811
:1044B000084000F00FBD00BF740700205C0600201C
:1044C00008B504200721FFF747FF054B05489979F8
:1044D0000122C1F38301BDE8084000F0FBBC00BF2E
:1044E000740700205C06002008B503200621FFF7B2
:1044F00033FF044B0448D9790222BDE8084000F09C
:10450000E9BC00BF740700205C06002008B501204C
:104510000521FFF721FF044B044859880322BDE819
:10452000084000F0D7BC00BF740700205C060020E4
:1045300038B50021304800F09FFC2F4800F024FDE2
:1045400000210A462C4800F081FC2C4C2C4D002107
:104550000A46294800F07AFCA07A02F075FCA5FB17
:10456000003102222448C1F3CF0100F0B3FC2549F9
:10457000214800F049FCA07A02F066FCA5FB00236C
:10458000DB0803EB8303A0EB4301012289B21A4845
:1045900000F0A0FC18481C4900F036FC00F0D6FEE4
:1045A00001380F2810D8DFE800F01D0C0F080F0F9E
:1045B0000F080F0F0F0F0F0F0F08BDE8384001F065
:1045C000F9BE6389013B63810B4800F097FB322001
:1045D00002F0F4FC6389094A592B4FF05A0105D8BF
:1045E0005181B4E7638901336381EDE7822B4FF09A
:1045F0008203ACD95381AAE75C060020740700202F
:10460000CDCCCCCC0CDA0008F8D9000808B50B20CA
:104610000721FFF7A1FE044B0448197ABDE80840C2
:10462000C1F3400100F0EABC740700205C060020E2
:1046300008B507210A20FFF78FFE064B06489B7935
:1046400013F0C00F14BF01210021BDE8084000F0A5
:10465000D5BC00BF740700205C06002008B5082008
:104660000721FFF779FE044B0448197ABDE808409A
:1046700001F0010100F0C2BC740700205C060020BC
:1046800008B50F200721FFF767FE044B0448197A8D
:10469000BDE80840C1F3C00100F0B0BC74070020C1
:1046A0005C06002008B506200721FFF755FE044BE5
:1046B0000448197ABDE80840C1F3800100F09EBCAF
:1046C000740700205C06002008B507210520FFF7CD
:1046D00043FE064B00225B7A0548934214BF4621F5
:1046E0004321BDE8084000F03BBB00BF7407002039
:1046F0005C06002008B505210220FFF72DFE0F4BB8
:10470000197905290CD9053989B20D48022200F022
:10471000E1FBBDE808400A484D21002200F020BB23
:1047200001EB810149000648022200F0D3FBBDE8FD
:10473000084003485321002200F012BB74070020F8
:104740005C06002008B50E4B1868FFF753FE00B951
:1047500008BD01F073FE0B48002100F08DFB002125
:104760000A46084800F072FB0648074900F04CFB77
:10477000044800F0C3FABDE80840C82001F044B97D
:10478000080100205C060020FCD900081F4B10B572
:104790001868FFF72FFE00B910BD1D4800F0F4FBAC
:1047A00000210A461A4800F051FB1A49184800F047
:1047B0002BFB174800F0A2FA002002F02BFA142479
:1047C000012002F017FB142002F0F8FB601E10F02D
:1047D000FF04F5D1642002F0F1FB204602F00AFB51
:1047E00002F034FA044602F01BFA0B4B0B4AA3FB0F
:1047F0000013A4EBD3039BB218B2D38102F00AFAE0
:10480000BDE81040642002F0D9BB00BFE8010020E1
:104810005C06002008DA0008CDCCCCCC7407002060
:10482000072008B50146FFF797FD0D4B9A7902F076
:104830000302012A12D0022A0ED00A4B32B1197893
:1048400009480022BDE8084000F08ABA19780648F5
:10485000BDE8084000F084BA044BF0E7044BEEE7F3
:1048600074070020C0D400085C060020EFD90008BF
:10487000EED9000808B506210020FFF76DFD0B4BAF
:10488000597929B9BDE8084009480A4900F0BCBA7D
:104890003231C9B20648002200F062FABDE8084091
:1048A00003485321002200F05BBA00BF74070020C8
:1048B0005C06002010DA00080160704730B587B050
:1048C00006AC04F8012D01234FF4FA7500680A467E
:1048D0000094019302953A2105F018F907B030BD14
:1048E00030B587B0012305AD4FF4FA7400680A466D
:1048F0000095019302943A2105F0A6F99DF8140061
:1049000007B030BDF0B5064689B008AB00220124DF
:104910004FF4FA7503F80D2D00683A218DE8180060
:10492000029523462B2205F0F1F8402708AB03F847
:104930000C7D30683A218DE838002B22234605F0A3
:10494000E5F8022005F08AFB08AB782203F80B2D6E
:1049500030683A218DE838001522234605F0D6F854
:1049600008AB03F80A7D30683A218DE8380011223F
:10497000234605F0CBF808ABC82203F8092D3068B0
:104980003A218DE838001222234605F0BFF808AB23
:10499000472203F8082D30683A218DE838001322A9
:1049A000234605F0B3F808AB9C2203F8072D3068C6
:1049B0003A218DE838001422234605F0A7F808AB09
:1049C000112203F8062D30683A218DE838002D2297
:1049D000234605F09BF808AB03F8054D30683A21F3
:1049E0008DE838002E22234605F090F808AB1222FD
:1049F00003F8042D30683A218DE838002B22234635
:104A000005F084F808AB102203F8032D30683A2132
:104A10008DE838000E22234605F078F808AB032213
:104A200003F8022D30683A218DE838000F22234622
:104A300005F06CF808AA192302F8013D30682346F6
:104A400000923A212A220194029505F05FF8022093
:104A500005F004FB09B0F0BD2DE9F0410C46074616
:104A6000904686B0012502F00DFBC4EBC41406ABE2
:104A7000002203F8042D4FF4FA76AC4038683A214E
:104A80008DE8280002962B462A22233405F03EF8B2
:104A900004F07F0406AB03F8034D38683A218DE833
:104AA000680017222B4605F031F806AB03F8028D9B
:104AB00038683A218DE8680018222B4605F026F860
:104AC00006AA312302F8013D38682B4600923A21AC
:104AD0002A220195029605F019F802F0F5FA06B0BF
:104AE000BDE8F08110B5044602F0CCFA2046102152
:104AF000FFF7F6FE044602F0E7FA230601D4002091
:104B000010BD14F0060F0CBF0220012010BD00BF25
:104B10002DE9F04786B007468A469146984604AE8E
:104B200002F0B0FA06254FF6FF7402E0052005F00A
:104B300095FA0122386813460096019502943A21AD
:104B400005F082F80028F1D102F0BEFA9DF810506D
:104B50009DF811109DF812409DF813209DF8140047
:104B60009DF8153041EA052142EA042243EA002378
:104B7000AAF80010A9F80020A8F8003006B0BDE897
:104B8000F08700BF2DE9F041CC18602C9846C8BFD3
:104B9000C1F160039DF818E0DDF81CC0C8BFDBB2AE
:104BA000A2B98BB10C465F1EFFB267440CF1FF3215
:104BB00012F8016FD0F8E050BA422E5504F101040A
:104BC000F6D1BEF1100F05D0BDE8F081082A14D14E
:104BD000002BF9D00022BEF1100F0CBF4446002478
:104BE0000CEB02052F5D55180132D0F8E460D4B209
:104BF000A3427755EFD8BDE8F081BEF1100FE7D0A2
:104C0000BDE8F081F0B583B09AB9203989B2044685
:104C1000B0F8EC504768A8B2602894F8EA3094F8ED
:104C2000EB60B4F8EE2016D90344A4F8EC3003B0DE
:104C3000F0BDC23A81F08001032AF8D8DFE802F023
:104C40000507090201F58071E1E74031DFE78031B6
:104C5000DDE7C031DBE7F00800FB03F001FB00718A
:104C600000960191204629B252B2FFF78BFFB4F8AB
:104C7000EC0094F8EA30D7E7F0B5DFF840C0002246
:104C80004FF00C0E00F1150700F1750610250124F8
:104C900080E8021080F8EAE0C0F8E070C0F8E46054
:104CA00080F8EB5080F8E940A0F8EE20A0F8EC2066
:104CB00080F8E82080F8F020F0BD00BF88AB000845
:104CC00010B5044682B0052005F0C8F94FF4807194
:104CD0000122084805F04CFC052005F0BFF94FF60D
:104CE000FF73206878210093034A322304F020FEEA
:104CF00002B010BD00080140CC00002070B590F853
:104D0000E8208023212182B004464172037283721D
:104D10000AB30022C27203735F2280230120402164
:104D2000222600256273A3732374A374E074217593
:104D3000E673657402F0A6F922464FF4FA7352F84E
:104D4000080B78210093CD2304F0F2FD02B0BDE8FA
:104D5000704002F0B9B92022C27203737F22DCE7EF
:104D60001F2900D94EE7704730B590F8E93085B07B
:104D70008B4204460D4615D00F4B18689B88029055
:104D8000ADF80C3081B102F07DF94FF6FF73206869
:104D900002AA00937821062304F0CAFD02F094F9D8
:104DA00084F8E95005B030BD1022AE238DF80B20F9
:104DB0008DF80D30E7E700BF88C9000830B590F8DE
:104DC000E83083B08B4204460D4614D00D4BA1B1A0
:104DD000C821A122D972DA7402F054F94FF6FF7398
:104DE000206878210093074A322304F0A1FD02F0E5
:104DF0006BF984F8E85003B030BDC021A022D9720D
:104E0000DA74E9E7CC00002038B50A780C4605468C
:104E100032B90FE01F2A0ED821464A784C1C4AB1FD
:104E20001306F7D561781F290CD8611C4A784C1CF1
:104E3000002AF5D138BD114628460022FFF7E2FED0
:104E40002146EAE72846FFF7DDFEEEE7A0F8EC1082
:104E5000A0F8EE20704700BF10B490F8EB3090F847
:104E6000EA4003FB02F204FB01F1A0F8EE20A0F8F7
:104E7000EC105DF8044B704701290BD002290CBFE0
:104E800009490A4910220C23416080F8EB2080F880
:104E9000EA307047064908220623416080F8EB207B
:104EA00080F8EA30704700BF10D1000888AB0008D6
:104EB00090C90008602A00DD704710B50C4682B02A
:104EC000114610228DE814000022FFF75BFE02B0AD
:104ED00010BD00BF10B5052A82B04FF000040B468C
:104EE0008DF805400DD0032A8DF8044015D88DF8B3
:104EF00003401ED0022A8DF8024026D08DF80140D2
:104F00002FE0204AA2FB0312D20802EB8201A3EB9E
:104F1000410330338DF8043093B21A4AA2FB0312D6
:104F2000D20802EB8201A3EB410330338DF803304A
:104F300093B2144AA2FB0312D20802EB8201A3EB44
:104F4000410330338DF8023093B20E4AA2FB0312B4
:104F5000D20802EB8201A3EB410330338DF801301C
:104F600093B2084A02A9A2FB0342D20802EB8202D2
:104F7000A3EB4203303301F8083DFFF745FF02B0D1
:104F800010BD00BFCDCCCCCC10B5044600216022B2
:104F9000D0F8E00005F00AFDD4F8E400002160221A
:104FA000BDE8104005F002BD90F8E800704700BF72
:104FB000203138B5C9B20B4D10220C231F290446ED
:104FC000456080F8EB2080F8EA3002D90022FFF734
:104FD00019FE054910220C2384F8EB2084F8EA30EE
:104FE000616038BD10D1000888AB00080A2928BFCD
:104FF0000A210331C9B2FFF7DBBF00BF002914BF8C
:1050000011211221FFF7D4BF70B48CB2602C9DF82F
:105010000C6002D8039670BCB4E570BC704700BF4A
:105020002DE9F8434FF000094C46264D264E23E06B
:1050300014F1290FD8BF2824C9EB07094745234994
:105040004FEAE97034D881FB02E281FB0919C3EB16
:10505000E2032344C0EB2910181A20EAE070642808
:10506000A8BF6420C0B201F02FFFB946184804F071
:10507000A3F9642001F0A2FF012001F0BBFEB5F806
:1050800000800746C0EB0802D317B8F1000F12D01A
:1050900086FB0201C3EB21110C44142CC8DDC9EBC3
:1050A000070947454FF0140408494FEAE970CAD987
:1050B00000242046D7E74046B94601F005FF4446A4
:1050C000D4E700BF4C0600201F85EB51676666667B
:1050D000C00800202DE9F04F4FF47A608FB001F046
:1050E0006DFF0021102202A805F060FCDFF830817E
:1050F0000021102206A805F059FC0AA80021102260
:1051000005F054FC98F80630C3F38307092F05DD3A
:105110000922174662F3850388F80630DFF8049108
:10512000002699F802300DF11605022B65D03A4899
:105130000DF1020101AA0DF10603FFF7E9FC98F851
:105140000620BDF80200BDF80440BDF806100EAB05
:1051500003EB460312F03C0F06F1010623F8300C76
:1051600006F0070623F8204C23F8101C3AD0002440
:10517000A2462246AE460DF106030DF1260133F993
:1051800002CF3EF902BF624431F902CFAB42DA44AA
:105190006444F4D1002AB8BF073200B2C0EBE20089
:1051A00005F0BCFBBAF1000F8346BDF90400B8BF9F
:1051B0000AF1070AC0EBEA0005F0B0FB002C0BEB8C
:1051C000000ABDF90600B8BF0734C0EBE40005F0E3
:1051D000A5FB6FF0C70303FB07F7504407F6B8378A
:1051E000874213DB642001F0E9FE99F8023098F859
:1051F0000670022BC7F3830799D108480DF102010D
:1052000001AA0DF1060301F067F898E702F0A6FA8B
:10521000C9F80C00E6E700BF540600205006002045
:10522000740700204C06002038B51D4CA17901F010
:10523000030101292FD0022928D061B34FF4FA705D
:1052400001F0BCFE174D0AE0FFF74CFCA37903F018
:105250000303022B0FD04FF4FA7001F0AFFEAB78CE
:105260001148022BF0D1043801F096F8A37903F02D
:105270000303022BEFD10028EDD0A0F10201B1FA17
:1052800081F10A484909FFF799FDE4E70748002141
:10529000FFF794FDD2E70548FFF790FDCEE700BF8A
:1052A000740700204C060020540600205C060020F5
:1052B00010B5134B5C799CB1987A01F0C5FD0234AE
:1052C000E4B290FBF4F0202810DD213880B20928E8
:1052D00088BF0A2110D9BDE810400A48FFF786BEF2
:1052E00008481021BDE81040FFF762BE01210548C3
:1052F000BDE81040FFF77ABE411CC9B2EBE700BF22
:10530000740700205C060020322001F057BE00BF69
:1053100008B5002001F06EFD0A4B5B7A43B901F03D
:1053200095FCBDE80840014603220748FFF7D2BDBF
:1053300001F0DEFCBDE80840014603220248FFF709
:10534000C9BD00BF740700205C06002070B54FF493
:105350000071284805F006F9B0FA80F4402125488C
:10536000640905F0FFF880B944F00204E4B202F0E9
:10537000F5F9214E204D96F82031C6F81C01A342C4
:105380000BD12CBB0023184670BD002CEFD11A4E58
:10539000194D96F82031A342F3D04CB1002586F880
:1053A000204102F0DBF92B46C6F82401184670BDF7
:1053B00002F0D4F9D5F82431C01A2728EED895F890
:1053C0002031012B14D0022B0CBF02251025E6E75B
:1053D00002F0C4F9D5F82431C01A2828D2D9012CFA
:1053E00004D0022C0CBF08230023DFE70423DDE7F1
:1053F0001D46D4E7000801404C06002010B5FFF719
:10540000A5FF50B1FFF7A2FF0446322001F0D6FD00
:105410000848FFF773FC002CF4D1FFF797FF044610
:10542000322001F0CBFD0348FFF768FC002CF4D0DC
:1054300010BD00BF5C06002038B5334CA07A01F0E7
:1054400003FD0546607900F0F1FF80B2854201D38B
:10545000002038BD2D48FFF797FD00210A462B4854
:10546000FFF7F4FC237A294803F0080303F0FF0157
:105470008BB9FFF701FD264B24481968FFF7C4FCE0
:10548000244C04F11000FFF739FC00232380FFF7C0
:10549000B5FF012038BD0121FFF7EEFC1E4B1B4874
:1054A0001968FFF7B1FC082218480021FFF7CEFC6D
:1054B0001A4B16481968FFF7A7FCA07A01F0C4FC44
:1054C0000146174D1148A5FB01310222C1F3CF015E
:1054D000FFF700FD2E2100220C48FFF741FCA07AC7
:1054E00001F0B2FCA5FB0035ED0805EB8505A0EB4E
:1054F000450189B205480122FFF7ECFC0348094940
:10550000FFF782FCBCE700BF740700205C060020A8
:10551000980100204C06002094010020E0010020AA
:10552000CDCCCCCCF8D9000870B502F017F90646FE
:10553000404B0022404D1A8000210A463F48FFF7A9
:1055400085FC3E48FFF720FD3C480021FFF794FC16
:10555000FFF7FCFE0446002843D1374C2B88627AC3
:105560007AB340F25232934259D92A8002F0F6F8C7
:10557000801BC82830D831483C210022FFF7F0FBBF
:105580002E4820210022FFF7EBFB2C482188032224
:10559000FFF7A0FC637A2948FBB10021FFF708FD63
:1055A000264820210022FFF7DBFB3E210022234872
:1055B000FFF7D6FB2148FFF7A1FB322001F0FEFCEC
:1055C000BAE7B3F5E17F2FD94FF4E1732B8002F0F6
:1055D000C5F8801BC828CED970BD0121FFF7E8FCB3
:1055E000DEE702F0BBF8022C06460DD0102CF3D0FB
:1055F000012CB2D11148FFF7D7FC0F4C2B8850B1CA
:105600000A339BB22B80AAE70C48FFF7CDFC0A4C6B
:105610002B880028F4D00A3B9BB22B809FE7772B86
:10562000A4D878232B80A1E7312B9FD832232B805D
:105630009CE700BF4C060020740700205C06002099
:105640002DE9F84F734C2379052B00F2D3804FF4EA
:105650007A7909FB03F9704E6E4FDFF8C4A14FF061
:105660000008002001F0C6FB8346FFF76FFE1028FC
:1056700012D8DFE800F0776E6E110B1111110911CD
:105680001111111111110900BDE8F88F237A13F0DF
:10569000010F18BF4FF001085F4D00210A4605F1C8
:1056A0001000FFF7D3FB05F11000FFF76DFC05F1CB
:1056B00010000021FFF7E0FB43F6AC739B4500F2BE
:1056C000828105F11000FFF76FFC00284DD0FFF735
:1056D000EFFD05F1100020210022FFF741FB637A66
:1056E000002B73D0FFF714FE05F110000021FFF727
:1056F0005FFC4A48B8F1000F63D00221FFF758FC65
:1057000001F0DAFB0A2888BF0E21444898BF0F2118
:10571000FFF74EFC637AB8F1000F4BD0B889002B2D
:105720004BD001F01BFB3080FFF786FE0028ABD189
:105730003A48FFF7E3FAA37913F03C0F05D002F0E3
:105740000DF8F368C01A48455BD8322001F036FCEA
:1057500087E72588FFF7E8FE2388AB429CD000F05E
:1057600029FE99E74FF0000896E701F0A5FB0A280B
:1057700088BF0E2105F1100098BF0F21FFF718FC1C
:105780002648B8F1000F30D00221FFF711FC637AF0
:1057900023B3FFF7BDFD21480021FFF709FC1F4897
:1057A00020210022FFF7DCFAFFF782FD637AB8F1CF
:1057B000000FB3D13888002BB3D101F073FA3080D9
:1057C000B2E720214246FFF7CBFA99E7FFF7A0FDA9
:1057D00005F110000121FFF7EBFB8AE7FFF798FDC9
:1057E0000E480121FFF7E4FBD9E720214246FFF7ED
:1057F000B7FACCE741F27072A3F1050902FB09F98F
:1058000029E701F0ABFFD6F81C31C01A48459CD9F6
:105810007EE000BF740700204C0600205C060020DC
:10582000F00100207B88984228BF184601F096FAC4
:105830003080607A002800F09480002001F0DAFACD
:1058400001F056FA05466748FFF79EFB00216548C0
:105850000A46FFF7FBFA237A624803F0080303F0D5
:10586000FF0B002B00F083800121FFF705FB5E4B4F
:105870005C481968FFF7C8FA08225A480021FFF768
:10588000E5FA5A4B57481968FFF7BEFA55482946BA
:105890000322FFF71FFB7B7A5248002B7BD0544931
:1058A000FFF7B2FA53494F48FFF7AEFAA07A01F07A
:1058B000CBFA0146504D4B48A5FB01310222C1F302
:1058C000CF01FFF707FB2E2100224648FFF748FAD9
:1058D000A07A01F0B9FAA5FB0035ED0805EB8505C6
:1058E000A0EB450189B23F480122FFF7F3FA3D489A
:1058F00056210022FFF734FAE3791BB1F3683F4DDC
:10590000002B51D13748FFF7F9F9322001F056FB4F
:10591000FFF71CFD00287FF418AF01F01FFFF368AC
:10592000C01A63287FF611AF01F018FFD6F81C31BA
:10593000C01A63287FF609AFFFF77EFD00287FF4C9
:10594000A3AE637A3888002B7FF46CAF7B889842D3
:1059500028BF184601F0A6F93080607A00287FF44D
:105960006CAF01F047FA01F071F905466BE7594653
:10597000FFF782FA1B48DAF80010FFF745FA2946CC
:1059800018480322FFF7A6FA7B7A43B15946154817
:10599000FFF70EFBB0E71A49FFF736FA82E7114826
:1059A0000121FFF705FBA7E701F0D8FE41F2707374
:1059B000F979F26803FB01F3801A9842A2D9002317
:1059C0002B80BDE8F88F0F4B05F110001968FFF729
:1059D0001BFA05F11000FFF791F900232B80BDE8B9
:1059E000F84F0BE55C060020F8010020FC010020C8
:1059F00014DA000844D60008CDCCCCCC4C060020EC
:105A000018DA0008EC01002010B5044601F0A6FEEB
:105A1000044407E001F0A2FE84424FF0320005D3B7
:105A200001F0CCFAFFF792FC0028F3D010BD00BFC4
:105A300010B5E4B00DF1060319461B4A1B4C32F8B1
:105A4000020FA24221F8020FF9D10DF1CD020DF1A2
:105A5000CA0433F8021F0812A34202F8010C02F82C
:105A6000021BF6D19DF8CC30AA2B02D0002064B0E6
:105A700010BD9DF8CD30552BF8D19DF8CE30F02BD0
:105A8000F4D19DF8CF300D2BF0D10021102234AB92
:105A90008DE80C0006480A466023FFF7B5FA044873
:105AA000FFF72CF90120E2E7FEF70008C2F8000832
:105AB0005C0600202DE9F04FDFF8388385B0C5483B
:105AC00003F07AFC98F8061001F00301012948D090
:105AD000022900F00383002943D001F03FFE00F5C6
:105AE000C87401F03BFE84420CD9FFF7A1FF68B3F4
:105AF000FFF72CFC88BB322001F060FA01F02EFE8B
:105B00008442F2D8B34803F057FC98F8063003F00B
:105B1000C003402B01D1FFF793FD00230293FFF751
:105B200015FC029BDFF8B4B2022BDFF8CC9200F038
:105B3000B4800138072826D8DFE810F0AF00C10094
:105B40002500BC00250025002500600101F006FEAF
:105B50000446FFF7FBFB0028CDD001F0FFFD044613
:105B6000C9E79D48FFF72AF9B7E79B48FFF7C6F852
:105B7000142001F023FA00F01DFC00F01BFCB8F922
:105B80000E0001F047F800242046ABF8004001F079
:105B900031F901F05BF832280546904E40F27E81E3
:105BA00098F8063013F03C0F40F0C481B5F5167F2D
:105BB00040F2DA818848FFF7E7F900210A46864873
:105BC000FFF744F998F8083003F0040303F0FF02EC
:105BD000002B00F07E8180480121FFF74DF9002362
:105BE00002937F4B7C481968FFF70EF998F809007B
:105BF000002800F04482002001F0FCF801F078F861
:105C0000032201467448FFF765F9764B724819681C
:105C1000FFF7FAF87048B8F800100322FFF75AF9B6
:105C200008226D480021FFF711F96F4B6A48196887
:105C3000FFF7EAF898F80A0001F006F96B4B022228
:105C4000A3FB00316448C1F3CF01FFF743F9002201
:105C50002E216148FFF784F898F80A0001F0F4F863
:105C6000624BA3FB0023DB0803EB8303A0EB4301A0
:105C700089B259480122FFF72DF957485C49FFF7CF
:105C8000C3F85548FFF73AF8322001F097F9FFF7CB
:105C90005DFB029B022B7FF44CAF4F480021FFF7C6
:105CA000EBF84D480121FFF75FF800230293FFF75F
:105CB000C7FC68E7FFF738FC00F07CFB63E7464869
:105CC0000021FFF7D9F844480121FFF74DF8D9F832
:105CD0000430002B3FF44FAF00231D461F469A4669
:105CE000039300213C48FFF7C7F83B48FFF74CF906
:105CF00000210A463848FFF7A9F801F02FFDDBF82C
:105D00001C316C00C01AB0F5C87F04EB050380F0AD
:105D10009E8009EB83039B689847FFF717FB0138C8
:105D20000F282AD801A353F820F000BF995D00087E
:105D3000C95D00087B5D0008A75D00087B5D000869
:105D40007B5D00087B5D00086D5D00087B5D0008E1
:105D50007B5D00087B5D00087B5D00087B5D0008C3
:105D60007B5D00087B5D00086B5B000801F0F6FCC2
:105D7000039BC01A1E2800F292811748FEF7BEFF4F
:105D8000142001F01BF907EB470309EB83035B6861
:105D90003D46002BA5D1EEE6BAF1000F00F0798167
:105DA0004FF0000AE9E701F0D9FC039BC01A1E2856
:105DB000E3D92C4409EB84046368984701F0CEFCD6
:105DC0004FF0000A0390D8E7BAF1000FE8D101378D
:105DD000FFB2D2E7C00800205C0600204C0600207D
:105DE00010010020F4010020E0010020CDCCCCCC3B
:105DF000F8D900087407002000000020C148FFF710
:105E0000C3F800210A46BF48FFF720F8BD4801212A
:105E1000FFF732F8BB48BC49FEF7F6FF9BF80210CB
:105E2000B8480122FFF756F80822B6480021FFF7CC
:105E30000DF8B649B348FEF7E7FFB248FEF75EFF3C
:105E4000FFF7DCFAAF480021FFF716F89BE659F898
:105E5000230004F0F9FD073086B2BAF1000F54D0E8
:105E600004F0F6F8AA4BCAEB0000A3FB003031B2F5
:105E7000C00801EB4101B0FBF1F301FB1301890004
:105E8000C1F1540109B29F480022FEF7DFFF6319F8
:105E900059F823109B48FEF7B7FF3EE70294994854
:105EA000FFF772F800210A469648FEF7CFFF98F8F0
:105EB00008305B070ED593480121FEF7DDFFB5F5ED
:105EC000EB7F7FF68EAE934B8E481968FEF79CFFF2
:105ED000A6E602928B480021FEF7CEFF8948FFF725
:105EE00063F810230446A0B18B4A00930192542317
:105EF00084480C210022FFF787F800210A468148D8
:105F0000FEF7A4FFFFF7D4F9BBE604F0A1F8824640
:105F1000A6E7824A009301922146224654237948FB
:105F2000FFF772F8224677485421FEF78FFFFFF7FC
:105F3000BFF9A6E601F012FC41F27077F368C01ACF
:105F4000B84200F2B48001F009FCDBF80C30744C6C
:105F5000C01A632800F2B9806A480121FEF704FFE5
:105F6000B5F5167F3FF626AE029B002B97D1BDF804
:105F7000083064480121ABF800306A4EFEF7F4FEA9
:105F80003EE00121FEF778FF674B5E481968FEF797
:105F90003BFF5C4800210822FEF758FF634B59483D
:105FA0001968FEF731FF707A002800F09C8000200D
:105FB00000F020FF00F09CFE032201465148FEF74E
:105FC00089FF50485A49FEF71FFF98F808309A0792
:105FD00002D5462C00F2C2804A48FEF78FFEFFF73A
:105FE000B5F9012800F0D180022800F0D1801028F6
:105FF00000F0CE80312C40F2CB80322000F0DEFF6A
:10600000002000F0F7FE00F021FE04463D48FEF7B8
:10601000BBFF00213B480A46FEF718FF98F80830FE
:10602000384803F0080303F0FF07002BA9D13946D5
:10603000FEF722FF3F4A10230192009331481823B4
:1060400039463A46FEF7E0FF2E4818213A46FEF759
:10605000FDFE2C483849FEF7D7FE707A00286FD035
:10606000384600F0C7FE00F043FE032201462548F3
:10607000FEF730FF39462348FEF79AFFA5E700F008
:10608000B9FE00F0E3FD032201461E48FEF722FFA1
:10609000BBE52C4409EB8404636898476DE601F086
:1060A0005DFB0137FFB24FF0000A039065E601F097
:1060B00055FBD6F81C31C01AB8427FF644AF06F142
:1060C00010002146FEF750FE70E501F047FBD4F8C2
:1060D0001C31C01A63283FF669AD3DE7094800212D
:1060E000FEF76CFEF9E400F085FE00F0AFFD032240
:1060F00001460448FEF7EEFE02481049FEF784FE12
:1061000063E700BF5C0600201CDA000828DA0008FC
:10611000CDCCCCCC0C01002058D3000800D4000812
:106120004C060020740700209C010020E4010020A0
:1061300014DA000828D3000844D6000818DA00084A
:1061400000F058FE00F082FD032201461248FEF7DF
:10615000C1FE11480121FEF72BFF36E701F0FEFAE0
:106160000E4BA3FB002332221B0902FB130018284D
:106170003FF632AF0848FEF707FF0748FEF7BEFDBF
:10618000FFF7E4F801287FF42FAF0223029386E69D
:106190000123029383E600BF5C0600201F85EB51BC
:1061A000016070472DE9F043064689B008AB17221D
:1061B00001244FF4FA7503F80C2D006832218DE8A4
:1061C000180002952346A02203F0A0FC082708AB84
:1061D00003F80B7D306832218DE83800A122234678
:1061E00003F094FC08AB602203F80A2D30683221DA
:1061F0008DE83800A222234603F088FC08AB03F8A0
:10620000097D306832218DE83800A322234603F04F
:106210007DFC08AB022203F8082D306832218DE89E
:106220003800A422234603F071FC08AB622203F875
:10623000072D306832218DE83800A522234603F06F
:1062400065FC4FF07E0908AB03F8069D30683221EB
:106250008DE83800B422234603F058FC4FF028089C
:1062600008AB03F8058D306832218DE83800B6227E
:10627000234603F04BFC402708AB03F8047D30684D
:1062800032218DE83800B722234603F03FFC08ABEB
:1062900003F8039D306832218DE83800B022234690
:1062A00003F034FC08AB03F8028D306832218DE82E
:1062B0003800B222234603F029FC08AA02F8017D27
:1062C000306823460092019402953221B32203F0F4
:1062D0001DFC09B0BDE8F0832DE9F04786B0074604
:1062E0008A469146984604AE00F0CCFE062541F25F
:1062F000883402E0052003F0B1FE386832210096B0
:1063000001950294A822012303F09EFC0028F1D1FC
:1063100000F0DAFE9DF811509DF810109DF8134022
:106320009DF812209DF815009DF8143041EA0521D2
:1063300042EA042243EA0023AAF80010A9F8002048
:10634000A8F8003006B0BDE8F08700BF704700BF76
:1063500030B587B006AC04F8012D01234FF4FA756F
:1063600000680A46009401930295322103F0CEFBA7
:1063700007B030BD30B587B0012305AD4FF4FA74D6
:1063800000680A46009501930294322103F05CFCF8
:106390009DF8140007B030BD08B5B521FFF7EAFF3E
:1063A000082804D004280CBF0220002008BD0120CA
:1063B00008BD00BF70B5184C86B0002201231748F5
:1063C0000292019203930593049402F0F5FF144B9B
:1063D0003522DA6004F008F90A2003F03FFE0F4886
:1063E00002F0EAFF01A902A802F0ECFF04F0FCF8B9
:1063F0000C4D0D4E094802F0DFFF2146012035F813
:10640000022B0023023404F037F9B442F2D104F035
:10641000FDF806B070BD00BF00FC0008C0080020F9
:10642000002002407407002018FC000808B964200E
:10643000704700EB40104230C0B270472DE9F04188
:10644000174B02209A79072160F3010261F385025C
:10645000197A002001F0F30141F001010A2411270B
:106460004FF0060C60F3871260F341014FF096087D
:106470004FF4A07E75264FF4D27583F804C01F74C4
:106480009A71587158721972DC71A3F80280A3F8DE
:1064900000E05E819D81DC81BDE8F041FFF78ABFAD
:1064A0007407002010B40A4C0A4B22460A4833F8FD
:1064B000021F834222F8021BF9D1237C112B03D047
:1064C0005DF8044BFFF7BABF5DF8044B704700BF9F
:1064D00074070020FEFB000816FC0008104B10B4E7
:1064E0001968104A41F0010119605C680E482240A9
:1064F0005A601A680D4922F0847222F480321A60C0
:106500001A684FF41F0422F480221A605A6822F499
:10651000FE025A609C6081605DF8044B704700BFCA
:10652000001002400000FFF800ED00E0004000080D
:10653000224B00B59A6983B042F001029A619B69CF
:10654000032003F001030193019B03F0EFFC002102
:106550000A466FF00B0003F0FBFC00210A466FF0C7
:106560000A0003F0F5FC00210A466FF0090003F071
:10657000EFFC00210A466FF0040003F0E9FC002163
:106580000A466FF0030003F0E3FC6FF001000F21F7
:10659000002203F0DDFC4FF0FF300F21002203F05A
:1065A000D7FC074B5A6822F0E0625A605A6842F002
:1065B00000725A6003B05DF804FB00BF0010024097
:1065C00000000140224B02689A4200D07047F0B5AB
:1065D000044603F56C439A6987B042F400729A61ED
:1065E0009B69032603F4007302A9802701931948CD
:1065F000194D019B0396029703F0C8FE02A91748A4
:106600000296039603F0C2FEDFF854C04FF4807E7A
:106610004FF4405300264FF4806120222846C5F8ED
:1066200000C0C5F810E0EB616961AA61EF606E60BF
:10663000AE6001F0A7FB25623246052112206C6294
:1066400003F086FC122003F0B9FC07B0F0BD00BFD8
:106650000024014000080140FC070020000C01401C
:106660000800024002680F4B9A4200D0704730B5D4
:1066700087B001220323C02512240B4802A90492EB
:1066800005930295039403F081FE084BDA6942F406
:106690000012DA61DB6903F400130193019B07B078
:1066A00030BD00BF00540040000C0140001002400B
:1066B0000368114A82B0934211D0B3F1804F01D0E8
:1066C00002B0704703F50433DA6942F00102DA617F
:1066D000DB6903F001030193019B02B07047074B94
:1066E000DA6942F00202DA61DB6903F00203009327
:1066F000009B02B0704700BF000400400010024041
:10670000704700BF00BEFDE700BEFDE700BEFDE72D
:1067100000BEFDE7704700BF00F05EBC014801F01D
:10672000B1BB00BFFC070020014802F079BB00BFED
:10673000CC070020014801F01DBE00BF8C070020DF
:10674000014801F017BE00BF80080020014801F099
:1067500011BE00BF40080020082003F00FBF00BF9B
:10676000202003F00BBF00BF30B5014689B00022E6
:10677000192003F0EDFB192003F020FC154B01A9B3
:106780009A6903A842F400629A619B69124C03F46F
:1067900000630293029B02F0EDFA02F0DBFA40F292
:1067A000E7310E4B0E4DA3FB00239B0C0022013B57
:1067B000204663602560E1602261A26001F0D0FEA6
:1067C00010B1012009B030BD204601F06FFC09B0C6
:1067D00030BD00BF001002408C07002083DE1B4349
:1067E000002C014000231A46054901EB400030F817
:1067F00023100133202B0A44F9D1C2F38F007047D4
:10680000CC08002070B594B04FF46012002402252B
:10681000012310210A260AA813920A960E931093B8
:106820000F910F261195129401F0B6FF29464FF4EF
:10683000E06305A80893069507940994059602F06D
:10684000CFF901A80195039401F018FA02F06CFA4F
:10685000084BA3FB0030800903F0BCFB042003F0CD
:10686000D1FB314622464FF0FF3003F071FB14B0EC
:1068700070BD00BFD34D62102DE9F04FC44E99B0EA
:10688000FFF7C0FFB269C34D42F02002B261B269A6
:10689000284602F020020292029AB2694FF48071F7
:1068A00042F00402B261B469002204F004040394CB
:1068B000039CB4694FF0020A44F00804B461B4695F
:1068C0004FF0030904F008040494049C03F050FE04
:1068D00010A9B148CDF84CA0CDF84090CDF8449027
:1068E00003F054FD49F63F42284610A901271092B3
:1068F000CDF8449003F04AFD284610A94FF4C05249
:106900001092119703F042FD28464FF400610022D7
:1069100003F02EFE28464FF480510022002403F09D
:1069200027FE4FF41072284610A910924FF0070B63
:106930001297119403F02AFD10A99848DFF87C8281
:10694000CDF840B0CDF8449003F020FD4FF48073B3
:10695000284610A9924D10931197CDF84CA003F042
:1069600015FD10A928228D4812971195109203F059
:106970000DFDD8F80410224641F40041C8F8041077
:1069800071690B2039437161736905213B4005939F
:10699000059B03F0DDFA0B2003F010FB22460521D6
:1069A000102003F0D5FA102003F008FB2246052141
:1069B000112003F0CDFA112003F000FB4CF2503E01
:1069C000784ADFF8FCC1784D18AB4FF4804110468F
:1069D00082E8005000939460D46054619461D46163
:1069E0001462116102F02EFF70494FF480734FF46E
:1069F00060222846AB60EA61EF6029606C616C60E0
:106A0000C5F810A002F012FC0CA92846CDF830B051
:106A10000D97CDF838B002F08FFA0CA9092228465C
:106A20004FF0040B0C92CDF834A0082602F084FA43
:106A30004FF44052062310A928461293179211973B
:106A40001096169415941394CDF850B003F088FB6B
:106A500010A92846CDF844A003F082FB10A92846CF
:106A6000534ECDF8449003F07BFB10A92846CDF897
:106A700044B003F075FB4F4964224FF40073304675
:106A80007760B460B4613160F260336101F068FD39
:106A9000009B4FF4805243F8402D19463046019335
:106AA00001F0A2FB304601F093FD304601F074FD89
:106AB00006A9304660270694079403F00DFA4FF0BC
:106AC000320C10A922463046CDF844C0CDF800C0A3
:106AD0001294CDF850B0109701F0F4FD0CA91022DB
:106AE0002E480C92CDF834A0CDF83C9003F04EFC2B
:106AF000D8F80420214622F44062C8F80420D8F8CF
:106B00000420304642F40062C8F8042001F0DEFAA6
:106B100040F2DC51284E4FF0804E78224FF4007343
:106B20003046C6F800E0F26033617160B460B46171
:106B300001F016FD0CA94FF4805330460C9301F080
:106B400053FB304601F044FD304601F025FD019B2A
:106B5000304619460894099403F0BEF96E2310A933
:106B600022463046119310971294CDF850B001F0A0
:106B7000A9FD0C2210A93046109711941294CDF85B
:106B800050B001F06FFD304601F090FA1AE000BFFE
:106B9000001002400008014000140140000C0140B8
:106BA000000021104C090020CC07002000240140E7
:106BB0008008002000040040400800200000014040
:106BC000005400402146304601F080FA0C21304646
:106BD00001F0CCFA1C2003F0F1F90B4BDDF800C0FA
:106BE0000A4A1846062159601A60C3F808C002F024
:106BF000BFFB07494022284602F070FA284603F0FE
:106C00003FFA19B0BDE8F08FC00800200030004006
:106C1000CC080020014B1880704700BFA409002059
:106C200008B50020FFF7DEFD41F26333984208D932
:106C3000A0F59B50044B043880B2A3FB0030C00881
:106C400008BD002008BD00BFCDCCCCCC10B5124C87
:106C5000A0F5057084FB0034C017C0EBE4040020ED
:106C6000FFF7C0FD41F263339842A4B211D9A0F5F9
:106C70009B500A4B043880B2A3FB0020C008A3FB42
:106C80000023DB08064A108880B2201A184480B21C
:106C900010BD0023F6E700BFE1830F3ECDCCCCCC86
:106CA000A409002010B504460020FFF79BFD41F227
:106CB0006333984215D9A0F59B500B4B043880B232
:106CC000A3FB0020C008A3FB0023DB08074AE31A4C
:106CD000128812B2134403EB431303F5057080B21C
:106CE00010BD0023F2E700BFCDCCCCCCA40900201E
:106CF00010B5164CA0F5057084FB0034C2170020B7
:106D0000C2EBE404FFF76EFD41F2633398421AD9F7
:106D1000A0F59B500E4A043880B2A2FB0030C00898
:106D2000A2FB0030C0080B4B22181B880A481BB27C
:106D3000D31A03EBC30380FB0320DB17C3EB600014
:106D4000203080B210BD0020EDE700BFE1830F3E90
:106D5000CDCCCCCCA40900206766666610B520387F
:106D6000134C00EB800084FB0034C3170020C3EBFE
:106D70006404FFF737FD41F26333984215D9A0F55B
:106D80009B500C4B043880B2A3FB0020C008A3FB2F
:106D90000030C008084B241A188800B2044404EBE1
:106DA000441404F5057080B210BD0020F2E700BF66
:106DB000398EE338CDCCCCCCA409002038B50C4DAD
:106DC0000121284603F0B8F9022184B2284603F0D5
:106DD000B3F903210444284603F0AEF9A4B2042118
:106DE0000444284603F0A8F9A4B2204480B238BD78
:106DF000CC07002038B5A0B90F4C104B22781049B1
:106E00001D88531C03F01F03237021F812508B1EA2
:106E10003E3133F8022F8B421044FAD1C0F34F10A9
:106E200038BDFFF7CBFF074B044A1C78002122F83E
:106E300014001970108838BDF00A0020EC090020F9
:106E4000A8090020E8090020F8B5174D06462B7860
:106E50005BB1164C04F580770120FFF7C3FC44F8C2
:106E6000040FBC42F8D100232B70114C012027786D
:106E7000FFF7B8FC23780F4A013303F03F0342F8D1
:106E80002700237002F1FC00131F002253F8041F97
:106E900083420A44FAD19209B2FBF6F0312A9CBF30
:106EA00001232B7080B2F8BD04010020EC09002002
:106EB000A2090020F0090020024B1B68186CC0B228
:106EC000704700BF400800206423074A984213809F
:106ED00003D9064A12681364704718B9034B1B683C
:106EE000186470470346F4E7A0090020400800201A
:106EF000036810B5B3F1804F03D0134A934215D005
:106F000010BD124A124913880968013B9BB21380D5
:106F10000B6C13B113889BB263B90E4C0021204651
:106F200001F0EEF8236800225A6310BDBDE810405E
:106F300003F086B807483222036800215A63BDE88F
:106F4000104001F0C3B800BF002C0140A009002090
:106F500040080020800800200368B3F1804F00D073
:106F60007047037F082BFBD110B5044C002120464D
:106F700001F0C6F8236800225A6310BD8008002083
:106F800008B500F0A5FB002008BD00BF024630B5E3
:106F9000B0F9084085B0842C14BF0334002403AD3D
:106FA0000B4640681168128A8DE8300000F0A6FA9E
:106FB00001280CBF0398002005B030BD08B5054B73
:106FC000A3FB0030C00808BF012000F0E7FC002050
:106FD00008BD00BFCDCCCCCC08B500F081FD0128A8
:106FE00003D0BDE8084000F0A5B808BD0A4B1B68F7
:106FF000013308D04FF0500383F31188BFF36F8F34
:10700000BFF34F8FFEE74FF0500383F31188BFF3B8
:107010006F8FBFF34F8FFEE7000200200648006825
:10702000006880F3088862B661B6BFF34F8FBFF384
:107030006F8F00DF00BF000008ED00E0074B10B4C9
:1070400021F001014FF0807440F8202C00E912007B
:1070500040F80C3C5DF8044B40387047ED6F000879
:10706000074B19680868B0E8F00F80F30988BFF390
:107070006F8F4FF0000080F311884EF00D0E7047B7
:107080008C3300204FF0500383F31188BFF36F8FD0
:10709000BFF34F8F0A4A13680133012B136000D0EE
:1070A0007047084B1B6813F0FF0FF9D04FF05003E7
:1070B00083F31188BFF36F8FBFF34F8FFEE700BFDD
:1070C0000002002004ED00E0084A136843B94FF0C5
:1070D000500383F31188BFF36F8FBFF34F8FFEE729
:1070E000013B13600BB983F3118870470002002045
:1070F000EFF30980BFF36F8F0D4B1A6820E9F00F93
:1071000010602DE908404FF0500080F3118800F026
:107110006BFC4FF0000080F31188BDE8084019684F
:107120000868B0E8F00F80F30988BFF36F8F7047ED
:107130008C33002008B54FF0500383F31188BFF360
:107140006F8FBFF34F8F00F00FFB18B1034B4FF061
:1071500080521A60002383F3118808BD04ED00E01B
:10716000064B074A1B680748A2FB0323064A5B0934
:10717000013B072103601160704700BF0001002040
:107180001F85EB5114E000E010E000E010B5204B4B
:1071900082B01A78FF21D2B2019219701B781D4C6F
:1071A000DBB28DF803309DF803309DF803101A48C8
:1071B00003F0500307220906237002600DD5062252
:1071C00000E00A469DF80330511E5B00DBB28DF8EB
:1071D00003309DF803301B06F3D4019912020C4CC6
:1071E0000E4BC9B202F4E062026021701A6842F4E8
:1071F00070021A601A6842F070421A60FFF7B0FF1E
:10720000074B00221A60FFF709FFFFF7EFFE00BFF0
:1072100000E400E0F10A0020F40A002020ED00E084
:1072200000020020114A1368834201D21A46FAE78D
:10723000516810B45418844203D144681046214464
:107240005160416844189C4208D1094C2468A3420B
:1072500004D018CB21444160036000E00360824207
:1072600018BF10605DF8044B704700BF000B002092
:10727000FC0A00202DE9F843044600F067FA46486E
:107280000368002B5CD0454B1E68264252D1002C6F
:1072900050D004F1080359071CBF23F0070308333B
:1072A000002B47D0DFF80481D8F80050AB4241D81A
:1072B0003B490C6803E0276827B121463C466268D9
:1072C0009342F8D80068844234D02068C3EB020EA1
:1072D000BEF1100F0F68086011D9E018420708D0FE
:1072E0004FF0500383F31188BFF36F8FBFF34F8FBD
:1072F000FEE7C0F804E06360FFF794FF6268294985
:10730000AB1A0868C8F80030834238BF0B603243BC
:1073100000232360626007F1080500F0C3FA6B07E1
:107320000BD04FF0500383F31188BFF36F8FBFF37F
:107330004F8FFEE700F0B6FA00252846BDE8F88337
:10734000194A550725D0D11D21F0070102F5205318
:107350000A465B1A1344083B23F00703DFF8449006
:10736000DFF84880DFF838E0DFF830C0991A0025F0
:107370004FF000478EE824003E465D601D600360CC
:10738000C9F80010C8F80010CCF800705160136004
:107390007BE74FF42053DDE7FC0A00200833002090
:1073A000000B00200C330020080B0020F80A0020FE
:1073B000D0B1194A50F8043C12681A4208D14FF073
:1073C000500383F31188BFF36F8FBFF34F8FFEE736
:1073D00050F8081C49B14FF0500383F31188BFF3F4
:1073E0006F8FBFF34F8FFEE7704710B5044623EA57
:1073F000020340F8043C00F0A9F9084A54F8043CA0
:107400001168A4F108000B441360FFF70BFFBDE8FF
:10741000104000F047BA00BF08330020F80A0020EF
:10742000064807494FF080520368012BFDD90A60D6
:10743000BFF34F8FBFF36F8FF6E700BF38330020E5
:1074400004ED00E0074B1A68126822B9064B4FF0B2
:10745000FF321A6070471A68034BD268D2685268CC
:107460001A60704714330020AC330020F8B51C4B71
:107470001C4D1E682B680446181D0F4600F07AFB51
:1074800040B92B681849D86A0A680123834022EA68
:1074900003030B60631C19D02B683444A6425C6064
:1074A000104B0BD8114A10681968043100F048FBE2
:1074B0000F4B1A68944238BF1C60F8BD0D4A106823
:1074C0001968BDE8F840043100F03ABB002FE3D062
:1074D000296809480431BDE8F84000F021BB00BF2D
:1074E000A83300208C330020E03300201433002028
:1074F000AC33002030330020CC3300202DE9F84F8E
:1075000095008046284689461F460B9EFFF7B2FE2F
:107510008246002800F08E805420FFF7ABFE044620
:10752000002800F08480043D554425F00705C0F88C
:1075300030A009F1FF3309F10F0100F1330213F814
:10754000010F02F8010F187808B18B42F7D10A9B9E
:107550004FF0000B032B28BF0323994604F1040AC4
:10756000E3626364504684F843B0C4F848B000F066
:10757000D3FA04F1180000F0CFFAC9F10403C4F8FB
:107580004CB0A361246184F850B06462284641463F
:107590003A46FFF753FD206006B13460FFF772FDF5
:1075A0003B4A3C4F1368013313603B68002B45D0C6
:1075B000DFF81081D8F800307BB3E36ADFF808C148
:1075C000DFF808E1DCF80060DEF800200125324831
:1075D00005FA03F903EB830349EA020200EB830097
:1075E00051462E44CCF80060CEF8002000F098FA06
:1075F000FFF76AFDD8F80030B3B13A68E36AD26A9F
:107600009A4211D2254B4FF080521A60BFF34F8F30
:10761000BFF36F8F2846BDE8F88F3A68E36AD26AF5
:107620009A4298BF3C60C9E72846BDE8F88F5046AB
:10763000FFF7BEFE4FF0FF30BDE8F88F3C601368E7
:10764000012B03D0E36ADFF87C80B7E7124800F033
:1076500057FA134800F054FA124E134800F050FA4B
:10766000124D134800F04CFA304600F049FA284613
:1076700000F046FA0F4800F043FA0F4800F040FAD5
:107680000E4B0F4A1E60DFF83C80E36A156095E7F9
:10769000B43300208C3300203833002004ED00E0A8
:1076A0004C3300201C33002060330020B83300200E
:1076B0007433002090330020CC330020143300209A
:1076C0003033002018330020B0330020E033002096
:1076D00030B5184B83B0002401930094234616481C
:1076E00016494FF48072FFF709FF01280CD00130D2
:1076F00001D003B030BD4FF0500383F31188BFF3C6
:107700006F8FBFF34F8FFEE74FF0500383F3118865
:10771000BFF36F8FBFF34F8F09490A4A0A4B4FF0EF
:10772000FF350D6010601C6003B0BDE83040FFF70E
:107730002DBD00BFA433002021740008F0D900083B
:10774000AC33002018330020A8330020024A13680D
:1077500001331360704700BF88330020014B186865
:10776000704700BFA83300202DE9F84F424B1B683B
:10777000BBB9424B1C6801341C600CB3404E3368EB
:107780009C422BD23F4D404F4FF0000B3A68D26ADB
:1077900002EB820255F82220022A28BF4FF0010B8B
:1077A00005E03A494FF0000B0A6801320A60384A96
:1077B0001268002A18BF4FF0010B5846BDE8F88F39
:1077C000344B1A681268002A47D04FF0500383F3F5
:1077D0001188BFF36F8FBFF34F8FFEE7DFF8B490D0
:1077E000284D294F4FF0000B2EE02A4B1A68D26823
:1077F000D2F80C80D8F8041008F1040A8C4238D36F
:10780000504600F0B7F9D8F8281008F1180009B16F
:1078100000F0B0F9204BD8F82C001B68012202FAC6
:1078200000FC1D4A00EB8000514605EB80004CEA4D
:107830000303136000F074F93868D8F82C10C26A9A
:10784000914228BF4FF0010BD9F800201268002A9E
:10785000CBD14FF0FF32326098E7104918680D68BD
:107860000F4A1D600860136801331360FFF7EAFDDB
:1078700084E731608AE700BF88330020A833002006
:10788000AC330020383300208C3300203433002008
:10789000E433002014330020E03300203033002094
:1078A000103300202DE9F84F334C236843B94FF0D3
:1078B000500383F31188BFF36F8FBFF34F8FFEE741
:1078C000FFF7E0FB2368013B23602468002C4DD1C7
:1078D0002A4B1B68002B49D0DFF8B8A0284DD346AF
:1078E000284EDFF8B480DAF80030012723B3DBF844
:1078F0000C30DC6804F1040904F1180000F03AF9D6
:10790000484600F037F9E06A336807FA00F200EB06
:1079100080001343494608EB8000336000F000F913
:10792000194BE26A1B68DB6A9A42DCD3DAF8003052
:107930002F600127002BDAD10CB1FFF783FD134E26
:1079400034683CB10127FFF70FFF00B12F60013C05
:10795000F9D134602B684BB10D4B4FF080521A6057
:10796000BFF34F8FBFF36F8F012400E00024FFF7B8
:10797000ABFB2046BDE8F88F88330020B4330020ED
:10798000E4330020E03300208C3300203433002027
:1079900004ED00E0903300203833002008B558B1E2
:1079A0000F4B196889B14FF0500383F31188BFF36F
:1079B0006F8FBFF34F8FFEE70A4B4FF080521A6074
:1079C000BFF34F8FBFF36F8F08BD1A6801321A6083
:1079D000FFF74CFDFFF766FF0028EDD008BD00BFA4
:1079E0008833002004ED00E0164B1B6833BB1649BA
:1079F000164A0B601368B3FA83F3DBB2C3F11F03BB
:107A0000134803EB83039B00C258C11842B94FF0DF
:107A1000500383F31188BFF36F8FBFF34F8FFEE7DF
:107A20004A680833526803449A424A6008BF526861
:107A3000084B08BF4A60D2681A607047024B0122A7
:107A40001A60704788330020E4330020E0330020C0
:107A5000383300208C330020F8B5C368DC682CB3C1
:107A600004F11805284600F085F8174B1B6833BB56
:107A7000271D164E384600F07DF8E36A326801256E
:107A800013489D4003EB83032A43394600EB8300F0
:107A9000326000F045F80F4BE26A1B68DB6A9A42DD
:107AA00083BF0D4B012018600020F8BD4FF050033C
:107AB00083F31188BFF36F8FBFF34F8FFEE7294623
:107AC000064800F02DF8E6E788330020E033002078
:107AD000383300208C330020E43300209033002022
:107AE000054B1B6833B1054B1B68002B0CBF0220F4
:107AF0000020704701207047183300208833002091
:107B000000F108034FF0FF310022816080E80C0093
:107B1000C3600361704700BF00230361704700BF6B
:107B200090E80C0010B49C6801328C609C684B603B
:107B3000616099605DF8044B08610260704700BFA6
:107B400030B40D686B1C11D000F1080200E01A4639
:107B500053681C68A542FAD204684B6001349960EE
:107B60008A6051600861046030BC704702695368E4
:107B7000F2E700BF43688168026910B499608168C8
:107B800054684B601368844208BF5160013B002178
:107B900001615DF8044B184613607047E8B170B599
:107BA00004460D46FFF76EFA226CE36B216803FB77
:107BB00002F39A1AFF200A440B440026A663E260EF
:107BC00084F844006360A16084F8450005BB236924
:107BD00063B9FFF779FA012070BD4FF0500383F3CA
:107BE0001188BFF36F8FBFF34F8FFEE704F11000D2
:107BF000FFF732FF0028ECD00B4B4FF080521A6099
:107C0000BFF34F8FBFF36F8FFFF75EFA012070BD98
:107C100004F11000FFF774FF04F12400FFF770FF78
:107C2000FFF752FA012070BD04ED00E040B94FF0BB
:107C3000500383F31188BFF36F8FBFF34F8FFEE7BD
:107C400070B506460D4689B101FB00F04830FFF7DC
:107C500011FB044640B100F148030360E66325646C
:107C600020460121FFF79AFF204670BD4820FFF70C
:107C700001FB04460028F7D02460EFE72DE9F0412E
:107C80000446006882B0C30727D53B4BDA69D700AA
:107C90003BD53A4B00251A68D60544D5364A136AB7
:107CA00013F440730FD0616801F4407098420BD018
:107CB000136A3349012700260F6023F440700E60D9
:107CC000D907106246D461682B4A136A23F44073C3
:107CD0000B431362002D38D1206883070DD410F0B8
:107CE000100007D02449E2684B68002023F4800389
:107CF00013434B6002B0BDE8F0811F49A3684A6896
:107D000022F4404213434B60E9E7DA69012542F06F
:107D10008052DA61DB6903F080530193019B174BBA
:107D20001A68D605BAD41A681E4642F480721A60E0
:107D300002F08EF907463368D805AFD402F088F90F
:107D4000C01B6428F7D90320D4E7D36923F08053FC
:107D5000D361C1E7164602F07BF941F288378046CD
:107D600005E002F075F9C8EB0000B842EBD8336AC1
:107D70009A07F6D5A7E700BF001002400070004048
:107D800040044242034600282DD0F0B44168056803
:107D90008468164AC068164E0C432A441969044385
:107DA0005F69A6FB02020C439E692968D8693C43BF
:107DB000344321F47F51044321F030010D4812096E
:107DC0000C43012600219200D8631A6408462C60F7
:107DD00083F821609962D96219635963996383F8C2
:107DE0002010F0BC70470120704700BFF8FFFDBFB6
:107DF000CDCCCCCC000002402DE9F04190F82040E1
:107E0000012C0CD090F821500124A54280F820408C
:107E100008D0002380F820300220BDE8F081022045
:107E2000BDE8F0810468002686632668D0F83CC06F
:107E300026F0010E066C47684FF00208B54080F846
:107E40002180C4F800E0CCF804506360C36A102FAE
:107E50000BBFA260A160E160E26053B1236843F010
:107E60000E0323602368002043F001032360BDE874
:107E7000F081236823F004032360236843F00A039E
:107E80002360EFE7F0B4C66B016C3468042203682A
:107E90008A4022421D681FD06F071DD51A689206BE
:107EA00003D41A6822F004021A603F4A93425DD05C
:107EB0001432934262D01432934269D01432934206
:107EC0006CD0143293425BD0143293420CBF4FF407
:107ED00080034FF080634AE002228A40224222D08F
:107EE000AF0720D51A68910606D41A68012122F03E
:107EF0000A021A6080F821102B4A93422CD01432C7
:107F0000934243D01432934245D01432934248D026
:107F10001432934237D0143293420CBF4FF4001303
:107F20004FF0007319E008228A4022421CD02A0731
:107F30001AD51C680122056B02FA01F724F00E0421
:107F400000211C607760826380F8212080F8201077
:107F500055B12B46F0BC18470223144C826A00210D
:107F6000636080F820103AB9F0BC704704230F49D1
:107F7000C26A4B60002AF7D0F0BC10474023F6E7F6
:107F80004FF48023F3E74FF40033E6E72023E4E7E0
:107F90004FF48063EBE74FF40073DEE74FF4804368
:107FA000E5E74FF40053D8E7080002400000024024
:107FB000036A8A6823F001030362F0B4036A114E76
:107FC000476885690C6823F0020325F07305B04209
:107FD00043EA020344EA050406D04A684760846124
:107FE0004263F0BC03627047CD688E694A6923F032
:107FF000080327F440772B43324323F0040317434D
:10800000EBE700BF002C0140026AF0B422F480725A
:108010008E680262036A124D4768C4690A6823F4D5
:10802000007324F07304A84243EA062342EA0402E0
:1080300006D049684760C261F0BCC1630362704703
:10804000CE684D6927F4405723F400638C6943EAF6
:10805000062347EA051523F4806345EA0417E8E799
:10806000002C0140026AF0B422F480528F68026250
:10807000036A0D4E4568C2690C6823F4005322F46C
:10808000E642B04243EA073342EA042206D0496896
:108090004560C261F0BC0164036270474C6925F41D
:1080A000804545EA8415F2E7002C01400368002072
:1080B000DA6842F00102DA601A6842F001021A60DE
:1080C000704700BF704700BF704700BF03680122C0
:1080D000186A8A4020EA02001862196A07480A43AF
:1080E00083421A6205D01A68002042F001021A6029
:1080F00070475A6C42F400425A64F4E7002C014085
:10810000036810B41A6A01248C4022EA04021A623D
:10811000154A196A9342196214D041F21112196A70
:108120000A4042B940F24442196A0A401AB91A6830
:1081300022F001021A60012380F83D305DF8044B03
:108140000020704741F21112196A0A40002AE4D156
:1081500040F24442196A0A40002ADED15A6C22F4E5
:1081600000425A64D9E700BF002C01400C2931D8E5
:10817000DFE801F0243030302A3030301E3030302B
:1081800007000368DA6842F01002DA60186A012218
:108190008A4020EA02011962196A12480A4383429E
:1081A0001A6219D01A68002042F001021A60704762
:1081B0000368DA6842F00802DA60E7E70368DA6821
:1081C00042F00202DA60E1E70368DA6842F0040292
:1081D000DA60DBE70368D9E75A6C42F400425A647C
:1081E000E0E700BF002C014090F83C30012B40D06C
:1081F00002220368F0B480F83D209A680C6822F4EB
:108200007F4222F077020125402C80F83C509A6092
:1082100073D018D9702C60D02DD9B4F5805F57D0A9
:10822000B4F5005F1CD19C684D688A6824F47F44D3
:10823000C9682A43224342EA01229A609A6842F4BA
:1082400080429A600CE0102C32D038D9202C6CD0AF
:10825000302C05D19A6822F0700242F037029A6001
:108260000023012280F83D2080F83C30F0BC184605
:10827000704702207047502C5ED0602CF0D11C6AF1
:108280004D6824F01004CE681C6299691A6A21F4C2
:10829000704122F0A00242EA051241EA06319961DA
:1082A0001A629A6822F0700242F067029A60D7E779
:1082B0009A6822F0700242F017029A60D0E7002C10
:1082C000CED19A6822F0700242F007029A60C7E7A6
:1082D0009A6822F007029A60C2E79C684D688A6833
:1082E00024F47F44C9682A43224342EA01229A6067
:1082F0009A6842F077029A60B2E71D6A1E6A4C687B
:1083000026F00106CF681E629A6925F00A0122F064
:10831000F00242EA071221439A6119629A6822F038
:10832000700242F047029A609AE79A6822F070025F
:1083300042F027029A6093E71D6A1E6A4C6826F095
:108340000106CF681E629A6925F00A0122F0F00248
:1083500042EA071221439A6119629A6822F0700278
:1083600042F057029A607BE7704700BF704700BF3A
:10837000704700BF036810B51A690446910702D51B
:10838000DA68920762D41A69500702D5DA68510791
:1083900049D41A69120702D5DA68100731D41A696C
:1083A000D20602D5DA68D00618D41A69D10702D5E8
:1083B000DA68D2076BD41A69100602D5DA6811069A
:1083C0006DD41A69520602D5DA68500657D41A6974
:1083D000910602D5DA68920649D410BD6FF01002FA
:1083E0001A61DB69082213F4407F2277204661D1AD
:1083F000FFF7BAFF2046FEF7AFFD00222368227781
:10840000D3E76FF008021A61DB690422990722772B
:10841000204655D1FFF7A8FF2046FEF79DFD00221C
:1084200023682277BBE76FF004021A619B6902227E
:1084300013F4407F227720463FD1FFF795FF204677
:10844000FEF78AFD002223682277A2E76FF002027E
:108450001A619B6901229B07027728D1FFF784FFED
:108460002046FEF779FD0022236822778BE76FF024
:1084700020022046BDE810401A6101F053BD6FF0A4
:1084800040021A612046FFF773FF23689FE76FF0F1
:1084900001021A612046FEF72BFD23688BE76FF07F
:1084A00080021A61204601F03FFD236889E7FFF74B
:1084B0005DFFD8E7FFF75AFF9FE7FFF757FFC1E7D8
:1084C000FFF754FFABE700BF244A036890422FD068
:1084D000B0F1804F10B415D0A2F59432904211D073
:1084E00002F5806290420DD04A6923F080038C68C7
:1084F0001343096803600123C46281625DF8044B81
:10850000436170474A6823F070031343CA6823F439
:1085100040731A434B698C6822F0800209681A4341
:1085200001230260C46281625DF8044B43617047BD
:108530004A6823F070031343CA6823F440731A4354
:108540004B6922F080021A4302608B68C3620B6899
:1085500083620B690363012343617047002C014070
:10856000C0B190F83D3010B503F0FF02044663B18E
:108570002146022351F8040B84F83D30FFF7A4FF95
:10858000012384F83D30002010BD80F83C20FEF728
:108590008FF8EDE701207047C0B190F83D3010B57D
:1085A00003F0FF02044663B12146022351F8040B95
:1085B00084F83D30FFF788FF012384F83D30002028
:1085C00010BD80F83C20FFF77DFDEDE701207047EE
:1085D000C0B190F83D3010B503F0FF02044663B11E
:1085E0002146022351F8040B84F83D30FFF76CFF5D
:1085F000012384F83D30002010BD80F83C20FFF7B7
:1086000063FDEDE701207047026AF0B422F010022A
:108610008E680262036A124D476882690C6823F013
:10862000200322F4E642A84243EA061342EA042267
:1086300006D0496847608261F0BC8163036270477D
:10864000CE684D6927F4406723F080038C6943EAC4
:10865000061347EA850523F0400345EA8407E8E767
:10866000002C014090F83C30012B1CD010B5044682
:108670000223012084F83C0084F83D300C2A0BD8FA
:10868000DFE802F0170A0A0A070A0A0A1B0A0A0A9E
:1086900013002068FFF7B8FF0123002084F83D3065
:1086A00084F83C0010BD022070472068FFF7DAFC18
:1086B000F2E72068FFF77CFCEEE72068FFF7A4FCF8
:1086C000EAE700BF38B590F83C30012B2BD00D46BF
:1086D00002230121044680F83C1080F83D300C2A2A
:1086E0001AD8DFE802F035191919071919194719AD
:1086F0001919220000682946FFF786FF23682869B8
:10870000996941F400619961996921F480619961E5
:108710009A6942EA00229A610123002084F83D30E0
:1087200084F83C0038BD022038BD00682946FFF7B8
:1087300099FC23682869D96941F40061D961D96934
:1087400021F48061D961DA6942EA0022DA61E3E763
:1087500029460068FFF72CFC23682A69996941F0D3
:1087600008019961996921F00401996199690A43A5
:108770009A61D1E729460068FFF746FC23682A6919
:10878000D96941F00801D961D96921F00401D961A1
:10879000D9690A43DA61BFE72DE9F041036882B085
:1087A000DD07044630D5AC494A6802F00C02042AC1
:1087B00000F0FA804A6802F00C02082A00F0F0800B
:1087C0006368B3F5803F00F05581002B00F0048111
:1087D000B3F5A02F00F0AA819F4B1A6822F48032D3
:1087E0001A601A6822F480221A6001F031FC9A4D56
:1087F000064605E001F02CFC801B642800F217817E
:108800002B689A03F6D523689F0729D5924A5168A9
:1088100011F00C0F00F0A980516801F00C0108293B
:1088200000F09F802369002B00F005818B4B012213
:108830001A6001F00DFC884D064605E001F008FCC9
:10884000801B022800F2F3802B68834A9807F5D535
:108850001368616923F0F80343EAC10313602368D6
:108860001A075CD45D0739D57B4BDA69D00000F17B
:10887000A580DA69012542F08052DA61DB6903F0F4
:1088800080530093009B764B1A68D10540F1BE805F
:10889000E368012B00F01381002B40F0F18003F11D
:1088A000804303F504331A6A1E4622F001021A625D
:1088B0001A6A41F2883822F004021A6201F0C8FBF9
:1088C000074605E001F0C4FBC01B404500F2AF8045
:1088D000336A9807F6D4002D40F0F780E269D2B1F0
:1088E0005D4B596801F00C01082945D0022A5D4A08
:1088F0004FF00001116000F0EE801C4601F0A8FB73
:10890000054605E001F0A4FB401B022800F28F8021
:1089100023689B01F6D4002002B0BDE8F081A36972
:10892000002B2DD0504B01221A6001F091FB4A4DD3
:10893000064604E001F08CFB801B022877D86B6AA6
:108940009B07F7D5494B4A4A1B68A2FB03235B0AE6
:10895000019300BF019B5A1E0192002BF9D123689D
:1089600080E75268D6033FF55DAF3B4A1268950732
:1089700026D52269012A23D0012002B0BDE8F0816A
:10898000394A354D136001F063FB064604E001F0FF
:108990005FFB801B02284AD86B6A9F07F7D4DEE78B
:1089A0004A68D0037FF50CAF2B4A126891037FF51C
:1089B0002BAF6268002A7FF427AFDDE7002562E76E
:1089C000254960690A6822F0F80242EAC0020A609A
:1089D0001A077FF547AFA2E703F1804303F504339D
:1089E0001A681D4622F480321A601A6822F4802226
:1089F0001A6001F02DFB064604E001F029FB801B04
:108A0000642814D82B689B03F7D4FCE61A681E462A
:108A100042F480721A6001F01BFB07463368DA05E6
:108A20003FF536AF01F014FBC01B6428F6D90320D4
:108A300002B0BDE8F081094A074D136001F008FB60
:108A4000064604E001F004FB801B0228EFD82B68E7
:108A50009907F7D4236803E7001002400000424260
:108A60000070004060004242800442420001002049
:108A7000D34D62103B4A136843F480331360B4E66D
:108A8000052B384B1A6A5ED022F001021A621A6A6C
:108A900022F004021A6201F0DBFA324E804641F203
:108AA000883705E001F0D4FAC8EB0000B842BED820
:108AB000336A9B07F6D5002D3FF410AF05E0294A35
:108AC000136A43F001031362E5E7264AD36923F0F2
:108AD0008053D36102E71D4601F0BAFA064604E06E
:108AE00001F0B6FA801B0228A1D82B681D4A990113
:108AF000F6D4206AB0F5803F2DD01A4B616A5A68CF
:108B0000014322F4741218480A4301215A6001609B
:108B10001C4601F09DFA054604E001F099FA401B5D
:108B2000022884D823689A01F7D5F4E603F180433C
:108B3000A3F53C331A6842F480221A601A6842F4A2
:108B400080321A6051E642F004021A621A6A42F058
:108B500001021A629FE75168A36821F400310B43B8
:108B60005360CAE7001002406000424230B4184D22
:108B700086B06968AA68EB68286802AC0FC42D8AC1
:108B80001449ADF804504A6802F00C03082B15D1C3
:108B9000C2F3834306A80344D20313F8103C11D553
:108BA0004A680D49C2F34042024412F8140CB1FB6A
:108BB000F0F003FB00F006B030BC7047064806B08A
:108BC00030BC7047054800FB03F006B030BC70476E
:108BD00074AB00080010024000127A0000093D004A
:108BE0004D4A2DE9F041136803F007038B420CD284
:108BF000136823F007030B431360136803F00703A4
:108C00008B4202D00120BDE8F08103689A0706D5A7
:108C1000424D82686C6824F0F00422436A60DF07EA
:108C200006460C4622D543683C4A012B12686FD099
:108C3000022B67D09107E5D5384D41F288386A6834
:108C400022F0030213436B6001F002FA73680746D7
:108C5000012B46D0022B05D14EE001F0F9F9C01BE3
:108C6000404552D86B6813F00C0FF6D12A4A1368AE
:108C700003F007039C4209D2136823F00703234340
:108C80001360136803F00703A342BBD133685A078C
:108C900006D52248F268416821F4E0610A43426047
:108CA0001B0707D51D4A3169536823F4605343EA13
:108CB000C1035360FFF75AFF184B19495B68194A03
:108CC000C3F30313CB5C20FA03F30F201360FDF70B
:108CD0004BFD0020BDE8F08101F0BAF9C01B404512
:108CE00013D86B6803F00C03042BF5D1BEE701F039
:108CF000AFF9C01B404508D86B6803F00C03082B84
:108D0000F5D1B3E7900197D47CE70320BDE8F0816B
:108D1000950391D476E700BF002002400010024086
:108D2000A8D4000800010020014B1868704700BF5C
:108D300000010020044B05495B68054AC3F3022388
:108D4000CB5C1068D840704700100240B8D40008CF
:108D500000010020044B05495B68054AC3F3C223A8
:108D6000CB5C1068D840704700100240B8D40008AF
:108D7000000100200E4B0F2202605A6810B402F06E
:108D8000030242605A680B4C02F0F00282605A689B
:108D900002F4E062C2605B6803F46053DB080361C5
:108DA00023685DF8044B03F007030B60704700BFB6
:108DB0000010024000200240704700BF436A9A6AD8
:108DC00012F0500F1ED19A6A196842F4007210B561
:108DD0009A628A6802F46022B2F5602F03D01846C6
:108DE000FFF7EAFF10BDDA68002AF8D19A6A22F488
:108DF00080729A629A6AD204F1D49A6A42F00102AD
:108E00009A62ECE71B6A1B6B184700BF704700BFF4
:108E100008B5406AFFF7FAFF08BD00BF704700BF02
:108E2000036810B55A680446900602D51A6891077F
:108E30002AD45A68100602D51A68510706D45A680F
:108E4000520602D51B68DB0733D410BDA26AD206D6
:108E500003D4A26A42F40052A2629A6802F4E04289
:108E6000B2F5E04F34D05A68500505D49A6802F440
:108E70006022B2F5602F28D0204601F06FF92368F8
:108E80006FF00C021A60DAE7A26AD20603D4A26A73
:108E900042F40072A2629A6802F46022B2F5602F76
:108EA00026D02046FFF788FF23686FF012021A6071
:108EB000BFE7A36A204643F48033A362FFF7AEFF07
:108EC00023686FF001021A6010BDE268002AD3D156
:108ED0005A6822F080025A60A36A23F48053A36286
:108EE000A36AD905C8D4A36A43F00103A362C3E708
:108EF000E268002AD5D15A6822F020025A60A36A9B
:108F000023F48073A362A36ADB04CAD4A36A43F088
:108F10000103A362C5E700BF704700BF08B5436AFD
:108F20009A6A184642F040029A62DA6A42F00402F3
:108F3000DA62FFF7F1FF08BD70B490F8243083B017
:108F40000246012B4FF00000019056D04B680120E3
:108F5000062B82F82400146825D803EB8303053B15
:108F6000666B08681F259D4026EA050500FA03F395
:108F70002B436363092827D900EB40031E3B896814
:108F8000E56807269E40994025EA06030B43E36007
:108F9000A0F11003012B27D90020002382F82430F0
:108FA00003B070BC70470C2B03EB830329D808680F
:108FB000233B266B1F259D4026EA050500FA03F397
:108FC0002B4309282363D7D88B68256900EB400120
:108FD00007268E4003FA01F125EA06030B432361BD
:108FE000A0F11003012BD7D81A4B9C4215D0936ADD
:108FF000012043F020039362CFE7022003B070BC4E
:109000007047413BE66A08681F259D4026EA050532
:1090100000FA03F32B43E362ACE7A3681B02BBD463
:10902000A368102843F40003A360B5D10A4B0B4991
:109030001B68A1FB03139B0C03EB83035B000193F1
:10904000019B002BA8D0019B013B0193019B002BAE
:10905000F9D1A1E7002401400001002083DE1B4379
:1090600070B5002382B0026801939368DB0721D4B6
:10907000184B194C1B689168A4FB034341F0010194
:109080009B0C91600193019B2BB1019B013B0193D0
:10909000019B002BF9D1054600F0DAFF064604E0FB
:1090A00000F0D6FF801B022807D82B689B6813F0BE
:1090B0000104F5D0002002B070BDAB6A012043F07E
:1090C0001003AB62EB6A85F824400343EB6202B005
:1090D00070BD00BF0001002083DE1B43F8B53D4D8D
:1090E0000468AC425ED005F58065AC425AD090F879
:1090F0002440012C01D10220F8BD012380F8243046
:1091000017460E460546FFF7ABFF002851D1AB6A64
:10911000296823F47063304A23F0010343F4807319
:109120009142AB6249D0AB6A23F48013AB624B68C7
:109130005A0505D5AB6A23F4405343F48053AB6220
:10914000AB6A286A13F4805318BFEB6ADFF890C04B
:1091500018BF23F00603DFF88CE0204AEB620024FE
:109160006FF0020385F82440C0F828C0C0F82CE056
:1091700002630B608B68324643F480768E603B4618
:109180004C31FEF739FE2B6820469A6802F46022C3
:10919000B2F5602F9A680CBF42F4A00242F480122C
:1091A0009A60F8BD0B4B5B6813F4702F9FD00120C1
:1091B000F8BD002385F82430F8BD064B5A6812F438
:1091C000702FB0D0AA6A42F48012AA625B685B0575
:1091D000B6D5AFE700240140002801401D8F0008EC
:1091E000BD8D0008118E000838B503689A68D20753
:1091F00001D4002038BD9A68044622F001029A602A
:1092000000F026FF054623689B68DB07F1D500F0D8
:109210001FFF401B0228F6D9A36A012043F0100368
:10922000A362E36A0343E36238BD00BF002862D053
:10923000F8B5836A0446002B44D02046FFF7D4FFDC
:10924000A36A13F0100FA36A37D1002835D1E5695E
:1092500023F488536268A16823F00203E76843F0AF
:1092600002032A43B1F5807FA36242EA47062FD06A
:10927000012942D06369012B44D0014625683A4B4D
:109280006A6822F469426A60AA6813403343AB609B
:10929000E86A364B20F470000843E862AA6813407D
:1092A0009E424DD0A36A012023F0120343F0100325
:1092B000A362E36A0343E362F8BD43F010030120B5
:1092C000A362F8BDC36280F82430FDF77BF9B4E7F0
:1092D0006369012B44D02568234B6A6822F46942F4
:1092E00042F480726A60AA6813403343AB6020691D
:1092F00001380105CCE7012070476369012BEAD1F1
:109300004FF480702FB3A36A43F02003A362E36A93
:1093100043F00103E3622568134B6A68B1F5807F6F
:1093200022F4694240EA02006860AA6803EA020384
:1093300043EA0603AB60DAD00129D8D00021A7E7C1
:109340000020E062A36A23F0030343F00103A36259
:10935000F8BDA369013B40EA433040F40060DAE71E
:109360000846002FCFD1F4E7FDF7E1FFFE0E1FFF07
:10937000F8B138B504464CF6CC4545F25550236853
:109380006168A2681D60186059609A6000F060FE14
:10939000054604E000F05CFE401B302807D8236837
:1093A000D8680028F6D14AF6AA221A6038BD0320F0
:1093B00038BD0120704700BF4AF6AA22036800208A
:1093C0001A6070472DE9F8432E4E337E012B43D0AF
:1093D00003680122022B8146884632764CF25030D7
:1093E00032D001F01DF990BB4FF0FF33C8F80030C8
:1093F000D9F80850D9F80C3005EB83239D4226D2CA
:109400000746214C09E0D9F80C20D9F8083005F5B9
:10941000806503EB8223AB421AD9F76123694CF2D2
:10942000503043F0020323616561236943F0400338
:10943000236101F0F5F8236923F00203236100287A
:10944000E1D0C8F8005003E001F0EAF838B101209B
:1094500000233376BDE8F8830220BDE8F8830A4C88
:10946000F06123694CF2503043F004032361236917
:1094700043F04003236101F0D3F8236923F0040390
:109480002361E5E7F0330020002002402DE9F84396
:109490000D46064690469946C1F30747346805E0F5
:1094A0006069430510D4B8F1FF3F20D1012F0CBFF4
:1094B0006069A069C04380B2284214BF0120002027
:1094C0000028EDD1BDE8F883236800226FF480679F
:1094D00043F4007304252021236001206761356473
:1094E00086F83C20326386F83D10BDE8F883B8F179
:1094F000000F05D000F0ACFDC9EB00008045CDD2D7
:1095000000232022336386F83C3086F83D20032078
:10951000BDE8F8832DE9F0410C46064617461D4686
:10952000C1F30748336801E06A1C0FD1B8F1010F9D
:109530000CBF58699869C04380B220420CBF01201B
:109540000020B842F0D00020BDE8F0812DB100F03D
:109550007FFD069BC01A8542E4D20023202233639C
:1095600086F83C3086F83D20032086F83E30BDE882
:10957000F08100BFF8B504460E46174620684369DF
:1095800013F0800324D145696A050CD56FF480651A
:1095900004212022456121640120236384F83C30AA
:1095A00084F83D20F8BD731CE9D026B100F050FDD1
:1095B000C01B8642E2D2236C002243F0200320210C
:1095C000236484F83C202263032084F83D10F8BD16
:1095D0000020F8BD2DE9F047056884B02C680D9E89
:1095E00044F48074884691469A462C600C9B009601
:1095F0004FF0011100220746FFF78CFF18B103203E
:1096000004B0BDE8F0873A6808F0FE0313613846FD
:109610001D490C9A3346FFF739FF38B13B6C042BD8
:109620000CBF0120032004B0BDE8F0873B68039025
:109630005A69384603929B690C9903933246039BFF
:10964000FFF798FF88B9BAF1010F18D039684FEACF
:1096500019230B61324638460C99FFF78BFF20B96E
:109660003A685FFA89F31361CAE73B6C042BC6D1F1
:109670003A680120136843F400731360C0E73B6845
:109680005FFA89F21A61BBE7020001002DE9F04799
:10969000046884B025680D9E45F4806525602568C2
:1096A000884645F4807591469A4625600C9B009645
:1096B0004FF0011100220746FFF72CFF18B10320DD
:1096C00004B0BDE8F0873B685FFA88F808F0FE0256
:1096D0001A6138462C490C9A3346FFF7D7FE20B161
:1096E0003B6C042BEBD10120EAE73B6803905A69FD
:1096F000384603929B690C9903933246039BFFF70C
:1097000039FF60B9BAF1010F3B6812D15FFA89F2F3
:109710001A6138460C993246FFF72CFFC0B13B6CFA
:10972000042BCCD13A680120136843F40073136012
:10973000C6E74FEA19221A6138460C993246FFF7FC
:1097400019FF0028EBD13A685FFA89F31361E0E76B
:10975000396802460B68384643F480730B604FF05B
:10976000011100960C9BFFF7D5FE0028A7D13968A0
:1097700048F001020A613346384603490C9AFFF764
:1097800085FE0028ACD19BE702000100F8B5044635
:109790000E4617462068436913F0040324D1456937
:1097A0006A050CD56FF4806504212022456121648F
:1097B0000120236384F83C3084F83D20F8BD731CFD
:1097C000E9D026B100F044FCC01B8642E2D2236CF3
:1097D000002243F020032021236484F83C202263EC
:1097E000032084F83D10F8BD0020F8BD70B5054693
:1097F0000C46164608E05169C90617D45CB100F062
:1098000027FC801B844206D32A68536913F0400367
:10981000F1D0002070BD2B6C2022134300212B645B
:1098200085F83C1085F83D20032070BD6FF01000D6
:10983000202150612B6401202B6385F83C3085F892
:109840003D1070BD00286AD0F8B590F83D30044650
:1098500003F0FF02002B4DD02268242384F83D3012
:10986000136823F001031360FFF764FA2D4B2E49B0
:10987000A3FB0023626826689B0C8A42736024D88D
:109880005200B0FBF2F0C0F30B020133032A336243
:1098900098BF0420276AE16904F110023943E768A0
:1098A0002CCA3A432B43F0613160B260F3603268F6
:1098B000002342F00102202132601846236484F81C
:1098C0003D10236384F83E30F8BD4FF4967101FBE0
:1098D00003F3164DA168A5FB03539B0901333362C3
:1098E00069B902EB4202B0FBF2F0C0F30B039BB983
:1098F0000120CFE780F83C20FCF7B4FEACE702EB98
:10990000820202EB8202B0FBF2F0C0F30B03002BE9
:10991000EED040F44040BDE740F40040BAE70120FB
:10992000704700BF83DE1B43A0860100D34D621049
:109930002DE9F043044685B01F468846154600F0E1
:1099400087FB94F83D30202B04D00225284605B033
:10995000BDE8F0830646009068492046012219239D
:10996000FFF7D8FD0028F0D194F83C30012BECD063
:10997000236801211A6884F83C10D20702D41A68BF
:109980000A431A601A685E4922F400624FF0210C03
:109990004FF0100E00201A6084F83DC084F83EE0BD
:1099A00020646785E162618DE26A6562042A21852F
:1099B00019D0012A17D012F5803F14D0226B122A39
:1099C00011D0009620464FF0011100220C9BFFF7AA
:1099D000A1FD68B1236C042B00F08480002384F87F
:1099E0003C300325B2E71A6842F480721A60E8E757
:1099F0002369B3F5804F0DD1236808F0FE021A6188
:109A0000204640490C9A3346FFF740FD0546A8B171
:109A1000236CDFE708F440732268DB1143F0F003A6
:109A20001361204638490C9A3346FFF72FFD002872
:109A3000EED122685FFA88F31361E1E723680390AF
:109A40005A6903929B690393039B36E020460C9965
:109A50003246FFF78FFD00283FD1D4F824E0D4F838
:109A600000C00EF1010363629EF80030B4F8288054
:109A7000CCF81030638D08F1FF37013B9BB2638552
:109A8000DCF81490BBB219F0040F20460C99324652
:109A900023850FD073B10EF1020363629EF801308B
:109AA000A8F10208CCF81030638DA4F82880013B9F
:109AB0009BB26385FFF76AFE78B9238D002BC5D171
:109AC000216820200A6842F400720A6084F83D0090
:109AD00084F83C3084F83E3038E7236C042B06D001
